:100000000C9434000C943E000C943E000C943E0082
:100010000C943E000C943E000C943E000C943E0068
:100020000C943E000C943E000C943E000C943E0058
:100030000C943E000C943E000C943E000C943E0048
:100040000C943E000C943E000C943E000C943E0038
:100050000C943E000C943E000C943E000C943E0028
:100060000C943E000C943E0011241FBECFEFD8E04C
:10007000DEBFCDBF0E9440000C945D000C940000D8
:10008000579A30E525E39AE15F9A832F8A95F1F735
:100090005F98822F8A95F1F75F9A892F8A95F1F7F9
:1000A0005F98892F8A95F1F75F9A892F8A95F1F7E2
:0E00B0005F98822F8A95F1F7E7CFF894FFCF83
:00000001FF
