:100000000C9434000C9451000C9451000C94510049
:100010000C9451000C9451000C9451000C94FF006E
:100020000C9451000C9451000C9451000C949800C5
:100030000C9451000C9451000C945E000C945100EF
:100040000C9451000C9451000C9451000C945100EC
:100050000C9451000C9451000C9451000C945100DC
:100060000C9451000C94510011241FBECFEFD8E026
:10007000DEBFCDBF11E0A0E0B1E0E2E4F3E002C0FA
:1000800005900D92A43CB107D9F721E0A4ECB1E0B2
:1000900001C01D92A53DB207E1F70E9432010C9408
:1000A0009F010C94000096B186B193FD04C084FDBD
:1000B00002C0459A01C04598429808951F920F9238
:1000C0000FB60F9211248F939F93EF93FF9380911C
:1000D000C4018F5F8093C401E091C901F091CA010E
:1000E0009081891304C01092C401409A04C0918188
:1000F000891301C040988091D1018F5F8093D10115
:10010000E091C901F091CA019281891304C0109253
:10011000D101419A04C09381891301C04198FF9194
:10012000EF919F918F910F900FBE0F901F90189598
:100130001F920F920FB60F9211242F938F939F93BC
:10014000EF93FF93E091CF01F091D001CF010196A1
:100150009093D0018093CF012081211109C080911B
:10016000C7019091C8019093D0018093CF0103C043
:100170002A3009F420E02BB98091CD019091CE0175
:1001800001969093CE018093CD018C329140C1F4C1
:100190001092CE011092CD01E091D201F0E0E0503A
:1001A000FF4F8081882311F02D9A01C02D988091F6
:1001B000D2018F5F8093D2018B3010F01092D20168
:1001C0008091D3019091D401009751F48091100156
:1001D000909111019093D4018093D301429A05C06C
:1001E00001979093D4018093D301FF91EF919F9158
:1001F0008F912F910F900FBE0F901F9018951F9207
:100200000F920FB60F9211242F938F939F93EF931A
:10021000FF93E091CB01F091CC01CF010196909337
:10022000CC018093CB012081211108C08091C501B0
:100230009091C6019093CC018093CB0195B1822F10
:100240008F70892B85B995B1822F806F892385B9ED
:10025000FF91EF919F918F912F910F900FBE0F9073
:100260001F901895259A87B1836087B988B18360FC
:1002700088B93A9A429884B18F6084B985B1807FF9
:1002800085B98FE78AB91BB83D9A87B1877E87B950
:1002900088B1886188B98AE591E09093C60180931E
:1002A000C5019093CC018093CB018091380190914E
:1002B00039019093C8018093C7019093D001809336
:1002C000CF0186E291E09093CA018093C90184B581
:1002D000826084BD80916E00826080936E008CE3AA
:1002E00087BD85B5826085BD8091810088608093DF
:1002F000810080916F00826080936F0085ED94E1B2
:100300009093890080938800809181008160809320
:1003100081008091B00082608093B0008091700075
:1003200082608093700088EC8093B3008091B1006C
:1003300082608093B10078940E945300FDCFF894BE
:02034000FFCFED
:1003420001000001000000000000A4066C0766081E
:100352006009F60935286B1400007150F12D000078
:100362006137BF4600003D2F831900006D4BE33D0E
:1003720000006E017F019001A101B2010103040698
:1003820007080A0C0D0002030407080B0C0D0F00EE
:1003920001030506070A0B0D0E0003040508090BED
:1003A2000C0E0F000103040608090B0C0E00456E2B
:1003B20067696E656572732072756C65210A0056F5
:1003C20048452032303520697320636F6F6C0A0014
:1003D200566974657262692069732034206D650AFA
:1003E2000055534320456E67696E656572696E6795
:1003F2000A0057686F20697320596F7274736F73A4
:040402003F0A0000AD
:00000001FF
